:100000000C9415010C9432010C9432010C943201C1
:100010000C9432010C9432010C9432010C94320194
:100020000C94A4050C9479020C9432010C945A0897
:100030000C9432010C9432010C947B020C9432012A
:100040000C9432010C9432010C9432010C9477021E
:100050000C9432019905910586057E05A3057E0560
:100060008605910599055761726E696E673A206E33
:100070006F7468696E6720746F20646F210A0D00C9
:100080005761726E696E673A20756E737570706F26
:100090007274656420636F6D6D616E64210A0D007A
:1000A0005761726E696E673A20756E737570706F06
:1000B0007274656420636F6D6D616E64210A0D005A
:1000C0006F6B0A0D006F6B0A0D004572726F723A0A
:1000D0002074686520636F6D6D616E742062756653
:1000E0006665722066756C6C210A0D006E616E008B
:1000F000696E660000407A10F35A00A0724E18092B
:100100000010A5D4E80000E87648170000E40B547E
:10011000020000CA9A3B000000E1F505000080964D
:100120009800000040420F000000A086010000007F
:10013000102700000000E803000000006400000039
:1001400000000A00000000000100000000002C7602
:10015000D888DC674F0823DFC1DFAE59E1B1B7961D
:10016000E5E3E453C63AE651997696E8E6C284267A
:10017000EB898C9B62ED407C6FFCEFBC9C9F40F256
:10018000BAA56FA5F490055A2AF75C936B6CF967D2
:100190006DC11BFCE0E40D47FEF520E6B500D0ED97
:1001A000902E0300943577050080841E08000020FF
:1001B0004E0A000000C80C333333330F986E12839D
:1001C0001141EF8D2114893BE65516CFFEE6DB1871
:1001D000D1844B381BF77C1D901DA4BBE424203236
:1001E00084725E228100C9F124ECA1E53D274E41D5
:1001F0004E494E495459494E46CDCCCC3D0AD723A1
:100200003C17B7D13877CC2B329595E6241FB14FE8
:100210000A000020410000C84200401C4620BCBE2D
:100220004CCA1B0E5AAEC59D740011241FBECFE5EB
:10023000D4E0DEBFCDBF10E0A0E6B0E0E2E8F5E23A
:1002400002C005900D92A438B107D9F711E0A4E8D7
:10025000B0E001C01D92AB31B107E1F70E94B608D2
:100260000C94C50E0C9400002F923F924F925F9217
:100270006F927F928F929F92AF92BF92CF92DF92B6
:10028000EF92FF920F931F93CF93DF9300D000D094
:10029000CDB7DEB71C0167E470E00E94AB0F00979A
:1002A00031F001960E94A70E082F10E802C010E05E
:1002B00000E06DE470E0C1010E94AB0F892B09F0F2
:1002C000106463E570E0C1010E94AB0F892B09F057
:1002D000106268E570E0C1010E94AB0F009749F021
:1002E00001960E94A30E69837A838B839C8310619D
:1002F00004C019821A821B821C8269E570E0C10168
:100300000E94AB0F009739F001960E94A30E2B01BB
:100310003C01186003C0412C512C32016AE570E0A9
:10032000C1010E94AB0F009739F001960E94A30E05
:100330004B015C01146003C0812C912C540165E4D5
:1003400070E0C1010E94AB0F009739F001960E9446
:10035000A30E6B017C01126003C0C12CD12C76016D
:1003600066E470E0C1010E94AB0F009769F001964E
:100370000E94A30E6093A4007093A5008093A60032
:100380009093A700116003C0112309F44EC017FF1A
:1003900047C0023008F040C080E1E4E9F0E0A4E8A2
:1003A000B0E001900D928A95E1F714FF0CC08981AD
:1003B0009A81AB81BC818093840090938500A09347
:1003C0008600B093870013FF08C0409288005092C7
:1003D000890060928A0070928B0012FF08C08092A0
:1003E0008C0090928D00A0928E00B0928F0011FF31
:1003F00008C0C0929000D0929100E0929200F092DA
:1004000093006091A4007091A5008091A600909146
:10041000A7000E94BE0204C080EA90E00E944C083F
:1004200016FF1DC080E890E002C086E690E00F90C5
:100430000F900F900F90DF91CF911F910F91FF9030
:10044000EF90DF90CF90BF90AF909F908F907F9074
:100450006F905F904F903F902F900C944C080F90AE
:100460000F900F900F90DF91CF911F910F91FF9000
:10047000EF90DF90CF90BF90AF909F908F907F9044
:100480006F905F904F903F902F9008958FEF84BBB7
:100490009EEF9ABB87BB80E881BB8DE483BF84E17C
:1004A0008CBF89B7836089BF83E08FBD89E18EBD32
:1004B00080E395E79BBD8ABD89B7846089BF88E9E1
:1004C0008AB986E880BD10BC83E389B980E287B928
:1004D0008FEC86B910BE089523E5829FC0011124D8
:1004E00064E670E00E940A128FE7860F0895DF9895
:1004F0001895DF9A18951F920F920FB60F9211243C
:100500002F933F934F935F936F937F938F939F931B
:10051000AF93BF9385B1909161002091600030E06E
:10052000290F311D43E5849FC001112464E670E06A
:100530000E940A12615870E06217730714F09798CE
:1005400001C0979A85B123E5829FC001112464E61A
:1005500070E00E940A1261586093A800369ABF9119
:10056000AF919F918F917F916F915F914F913F914B
:100570002F910F900FBE0F901F9018954F925F9282
:100580006F927F928F929F92AF92BF92CF92DF92A3
:10059000EF92FF92CF93DF93CDB7DEB76C970FB694
:1005A000F894DEBF0FBECDBF6B017C01209194009B
:1005B0003091950040919600509197006091840091
:1005C0007091850080918600909187000E94350C83
:1005D00069837A838B839C83209198003091990062
:1005E00040919A0050919B00609188007091890021
:1005F00080918A0090918B000E94350C6D837E83E0
:100600008F83988720919C0030919D0040919E009F
:1006100050919F0060918C0070918D0080918E00B0
:1006200090918F000E94350C69877A878B879C8711
:100630002091A0003091A1004091A2005091A30010
:100640006091900070919100809192009091930040
:100650000E94350C6D877E878F87988B20E030E075
:1006600040EA50E469817A818B819C810E94C50DAA
:100670000E94020D2B013C016093C6007093C700DD
:100680008093C8009093C90020E030E040EA50E435
:100690006D817E818F8198850E94C50D0E94020D1B
:1006A000698B7A8B8B8B9C8B6093CA007093CB0089
:1006B0008093CC009093CD0020E030E040EA50E4FD
:1006C00069857A858B859C850E94C50D0E94020DE7
:1006D0006D8B7E8B8F8B988F6093CE007093CF0045
:1006E0008093D0009093D10020E030E040EA50E4C5
:1006F0006D857E858F8598890E94C50D0E94020DAB
:10070000698F7A8F8B8F9C8F6093D2007093D30008
:100710008093D4009093D50029813A814B815C81EC
:10072000CA01B9010E94C50D4B015C012D813E81BA
:100730004F815885CA01B9010E94C50D9B01AC01CA
:10074000C501B4010E94360C4B015C0129853A8534
:100750004B855C85CA01B9010E94C50D9B01AC01A6
:10076000C501B4010E94360C4B015C012D853E850C
:100770004F855889CA01B9010E94C50D9B01AC0182
:10078000C501B4010E94360C0E942C0E4B015C0185
:10079000A3019201C301B2010E94FA112B013C0195
:1007A00029893A894B895C89CA01B9010E94FA11E9
:1007B000460E571E681E791E2D893E894F89588D19
:1007C000CA01B9010E94FA11460E571E681E791E11
:1007D000298D3A8D4B8D5C8DCA01B9010E94FA11A9
:1007E000460E571E681E791EC301B2010E94350DC8
:1007F0000E942C0E0E94020D6093C2007093C300F1
:100800008093C4009093C50020E030E84BEB55E4A2
:10081000C701B6010E94C10D181654F020E030E067
:10082000A901C701B6010E94C10D181644F0FCC011
:10083000C12C80E8D82E8BEBE82E85E4F82E20E042
:1008400030E0A901C501B4010E94C10D18160CF0D9
:10085000EBC069817A818B819C810E94020D9B0192
:1008600077FF04C022273327261B370BB9018827BF
:1008700077FD8095982F0E94350D2B013C019B013F
:10088000AC01C701B6010E94C50DA50194010E94EB
:100890009A0C20E030E44CE955E40E94C10D181692
:1008A00074F420E030E44CE955E4C501B4010E9441
:1008B000C50DA30192010E949A0C6B017C016D8110
:1008C0007E818F8198850E94020D9B0177FF04C075
:1008D00022273327261B370BB901882777FD809500
:1008E000982F0E94350D2B013C019B01AC01C701E3
:1008F000B6010E94C50DA50194010E949A0C20E04A
:1009000030E44CE955E40E94C10D181674F420E05F
:1009100030E44CE955E4C501B4010E94C50DA301C2
:1009200092010E949A0C6B017C0169857A858B8506
:100930009C850E94020D9B0177FF04C0222733276C
:10094000261B370BB901882777FD8095982F0E94C9
:10095000350D2B013C019B01AC01C701B6010E9482
:10096000C50DA50194010E949A0C20E030E04AE7F1
:1009700054E40E94C10D181674F420E030E04AE7F8
:1009800054E4C501B4010E94C50DA30192010E9467
:100990009A0C6B017C016D857E858F8598890E94FC
:1009A000020D9B0177FF04C022273327261B370B3C
:1009B000B901882777FD8095982F0E94350D2B016E
:1009C0003C019B01AC01C701B6010E94C50DA50108
:1009D00094010E949A0C20E030E04AE754E40E941F
:1009E000C10D181674F420E030E04AE754E4C50164
:1009F000B4010E94C50DA30192010E949A0C6B01E3
:100A00007C01C701B6010E94020D45E0469F90019E
:100A1000479F300D112480E09CE3B9010E940A1227
:100A200070936300609362001092B2001092B30062
:100A30001092B4001092B5001092B6001092B70058
:100A40001092B8001092B9001092BA001092BB0038
:100A50001092BC001092BD001092BE001092BF0018
:100A60001092C0001092C1008091B1008068809304
:100A7000B1006C960FB6F894DEBF0FBECDBFDF910C
:100A8000CF91FF90EF90DF90CF90BF90AF909F906D
:100A90008F907F906F905F904F900895E82FFF2781
:100AA000E7FDF09518166CF4E855FF4F208130E013
:100AB0002730310519F02F5F3F4F11C020E030E0A3
:100AC0000EC0E095F095E755FF4F208130E02115ED
:100AD000310519F02150310902C027E030E02083B0
:100AE000992787FD9095A92FB92FFC013496E930FD
:100AF000F10548F5E65DFF4F0C94741285B38F70D5
:100B000085BB85B3F901E458FF4F07C085B3807FEB
:100B100085BB85B3F901EC58FF4F9081892B85BBCC
:100B2000089588B38F7088BB88B3F901E459FF4FEB
:100B300007C088B3807F88BB88B3F901EC59FF4FA9
:100B40009081892B88BB08951F920F920FB60F9248
:100B500011248F929F92AF92BF92CF92DF92EF9229
:100B6000FF922F933F934F935F936F937F938F9356
:100B70009F93AF93BF93EF93FF938091B100803821
:100B800009F06DC2C090C200D090C300E090C400D4
:100B9000F090C500C114D104E104F10409F453C27A
:100BA0008091AF009091B00020916200309163007D
:100BB0008217930734F401969093B0008093AF00AE
:100BC0004CC21092B0001092AF002091C60030913C
:100BD000C7004091C8005091C900A091AD00B091EC
:100BE000AE001216130614061506CCF58090B2005E
:100BF0009090B300A090B400B090B5000E94F211A4
:100C0000A70196010E941E1282169306A406B5063D
:100C10000CF063C08FEF881A980AA80AB80A80926D
:100C2000B2009092B300A092B400B092B5002DEC47
:100C30003CEC4CE45EE360919400709195008091EF
:100C40009600909197000E94360C609394007093E8
:100C50009500809396009093970081E03CC0211509
:100C6000310541055105C9F18090B2009090B30063
:100C7000A090B400B090B5000E94F211A7019601B7
:100C80000E941E12281539054A055B0534F581E0DE
:100C9000881A9108A108B1088092B2009092B3001E
:100CA000A092B400B092B5002DEC3CEC4CE45EE3B5
:100CB00060919400709195008091960090919700BA
:100CC0000E94350C60939400709395008093960079
:100CD000909397008FEF0E944E052091CA003091AB
:100CE000CB004091CC005091CD00A091AD00B091CF
:100CF000AE001216130614061506CCF58090B60049
:100D00009090B700A090B800B090B9000E94F21186
:100D1000A70196010E941E1282169306A406B5062C
:100D20000CF063C08FEF881A980AA80AB80A80925C
:100D3000B6009092B700A092B800B092B9002DEC26
:100D40003CEC4CE45EE360919800709199008091D6
:100D50009A0090919B000E94360C609398007093CB
:100D6000990080939A0090939B0082E03CC02115EB
:100D7000310541055105C9F18090B6009090B7004A
:100D8000A090B800B090B9000E94F211A70196019E
:100D90000E941E12281539054A055B0534F581E0CD
:100DA000881A9108A108B1088092B6009092B70005
:100DB000A092B800B092B9002DEC3CEC4CE45EE39C
:100DC000609198007091990080919A0090919B0099
:100DD0000E94350C609398007093990080939A005C
:100DE00090939B008EEF0E944E052091CE00309193
:100DF000CF004091D0005091D100A091AD00B091B2
:100E0000AE001216130614061506CCF58090BA0033
:100E10009090BB00A090BC00B090BD000E94F21169
:100E2000A70196010E941E1282169306A406B5061B
:100E30000CF063C08FEF881A980AA80AB80A80924B
:100E4000BA009092BB00A092BC00B092BD002DEC05
:100E50003CEC4CE45EE360919C0070919D008091BD
:100E60009E0090919F000E94360C60939C007093AE
:100E70009D0080939E0090939F0083E03CC02115CD
:100E8000310541055105C9F18090BA009090BB0031
:100E9000A090BC00B090BD000E94F211A701960185
:100EA0000E941E12281539054A055B0534F581E0BC
:100EB000881A9108A108B1088092BA009092BB00EC
:100EC000A092BC00B092BD002DEC3CEC4CE45EE383
:100ED00060919C0070919D0080919E0090919F0078
:100EE0000E94350C60939C0070939D0080939E003F
:100EF00090939F008DEF0E944E052091D20030917B
:100F0000D3004091D4005091D500A091AD00B09194
:100F1000AE001216130614061506CCF58090BE001E
:100F20009090BF00A090C000B090C1000E94F2114C
:100F3000A70196010E941E1282169306A406B5060A
:100F40000CF063C08FEF881A980AA80AB80A80923A
:100F5000BE009092BF00A092C000B092C1002DECE4
:100F60003CEC4CE45EE36091A0007091A1008091A4
:100F7000A2009091A3000E94360C6093A000709391
:100F8000A1008093A2009093A30084E03CC02115AF
:100F9000310541055105C9F18090BE009090BF0018
:100FA000A090C000B090C1000E94F211A70196016C
:100FB0000E941E12281539054A055B0534F581E0AB
:100FC000881A9108A108B1088092BE009092BF00D3
:100FD000A092C000B092C1002DEC3CEC4CE45EE36A
:100FE0006091A0007091A1008091A2009091A30057
:100FF0000E94350C6093A0007093A1008093A20022
:101000009093A3008CEF0E944E052091AD0030918B
:10101000AE00C901AA2797FDA095BA2F8C159D0592
:10102000AE05BF053CF42F5F3F4F3093AE002093D9
:10103000AD0015C01092B1001092AE001092AD003C
:1010400085EC90E008C01092B1001092AE001092B2
:10105000AD0080EC90E00E944C0815BA18BAFF91E0
:10106000EF91BF91AF919F918F917F916F915F9120
:101070004F913F912F91FF90EF90DF90CF90BF90D5
:10108000AF909F908F900F900FBE0F901F9018956C
:101090005D9BFECF8CB90895CF93DF93EC01FE01E9
:1010A0008491882321F00E9448082196F8CFDF918F
:1010B000CF9108951F920F920FB60F9211242F9384
:1010C0003F934F935F936F937F938F939F93AF93D0
:1010D000BF93EF93FF932CB12A3009F12D30F9F033
:1010E0002B3319F481E080931801809116019091BF
:1010F00017018034910574F430911801311125C025
:10110000FC01EA52FF4F20830196909317018093D0
:1011100016011BC08AEC90E00E944C0816C0109289
:10112000180186ED90E00E9434018FE390E02AE000
:101130001816190634F4FC01EA52FF4F2083019778
:10114000F7CF1092170110921601FF91EF91BF9106
:10115000AF919F918F917F916F915F914F913F914F
:101160002F910F900FBE0F901F9018950E9446026E
:101170007894FFCFA3E1B0E0E0ECF8E00C943D12EE
:101180007C011B016A01FC0117821682838181FFA9
:1011900066C3BE016F5F7F4F4B01F7019381F10181
:1011A00093FD859193FF81911F01882309F453C317
:1011B000853239F493FD859193FF81911F0185322A
:1011C00039F4B70190E00E94C90F56016501E5CFDF
:1011D00010E0512C20E02032A0F48B3269F030F482
:1011E000803259F0833269F420612CC08D3239F09D
:1011F000803339F4216026C02260246023C0286037
:1012000021C027FD27C030ED380F3A3078F426FF93
:1012100006C0FAE01F9F300D1124132F13C06AE09F
:10122000569E300D1124532E20620CC08E3221F4B4
:1012300026FD11C3206406C08C3611F4206802C05C
:10124000883641F4F10193FD859193FF81911F014F
:101250008111C1CF9BEB980F933018F42061805E11
:1012600006C09BE9980F933008F0AAC12F7E26FF95
:1012700016E02F73722E853621F4F22FF0647F2E44
:1012800008C0863621F4622F6068762E02C01111E4
:10129000115077FE07C01C3348F444244394410E98
:1012A00027E00BC0183030F4212F06C027E04CE3B4
:1012B000442E03C027E017E0412C560174E0A70E2E
:1012C000B11CF6016081718182819381042DA4019A
:1012D0000E94C80E6C01098100FF02C003FF06C016
:1012E00071FC07C072FC08C0612C08C03DE2632E8F
:1012F00005C02BE2622E02C090E2692E802F8C7016
:1013000099F1662011F084E001C083E0851510F0AA
:10131000512C0BC0581A73FC08C0B70180E290E052
:101320000E94C90F5A94C9F7F3CF662029F0B7017C
:10133000862D90E00E94C90F03FD03C000EF10E06E
:1013400002C00CEE10E0F72DF0717F2EF8018491B1
:10135000882309F476C271108052B70190E00E9490
:10136000C90F0F5F1F4FF2CF77FE0FC04C0C04FF69
:1013700004C08A81813309F44A94141474F5F8E0A6
:10138000F41578F588E0482E2CC076FC2AC0812F11
:1013900090E08C159D059CF06CEFC6166FEFD6069D
:1013A00074F0772D7068772E0AC0E2E0F0E0EC0F61
:1013B000FD1FE10FF11D8081803319F411501111CF
:1013C000F4CF77FE0EC044244394410E812F90E069
:1013D000C816D9062CF41C1904C04424439401C037
:1013E00010E077FE07C01C141D043CF496012F5F2B
:1013F0003F4F05C025E030E002C021E030E066202C
:1014000011F02F5F3F4F112331F0412F50E04F5F1C
:101410005F4F240F351F452D50E02417350714F476
:10142000521A01C0512C872D897049F4552039F08A
:10143000B70180E290E00E94C90F5A94F7CF66206E
:1014400029F0B701862D90E00E94C90F73FC09C0F6
:10145000552039F0B70180E390E00E94C90F5A94FB
:10146000F7CF77FE5FC09C2D8D2DD7FE02C090E098
:1014700080E0692E782E40E050E0C6018419910981
:101480009D878C87960126193709280D391D812FD4
:1014900090E0EE27FF27E81BF90BFF87EE87FFEFB1
:1014A0006F167F0669F4B7018EE290E02B8B3A8BC2
:1014B000488B598B0E94C90F598948893A892B89D1
:1014C000C614D70454F06C857D85661577052CF419
:1014D000F901E40FF51F818101C080E371E0671A13
:1014E00071084F5F5F4FEE85FF856E167F066CF0CB
:1014F000B70190E02B8B3A8B488B598B0E94C90F18
:101500002B893A8948895989CACF6C147D0439F4EA
:101510009A81963318F4953311F404FF81E3B701EF
:1015200090E04BC08A81813309F00F7EB70190E0D3
:101530000E94C90F111105C074FE18C085E490E027
:1015400017C0B7018EE290E00E94C90F82E06624C6
:101550006394680EF401E80FF11D8081B70190E0FB
:101560000E94C90F115041F3862DF1CF85E690E01E
:10157000B7010E94C90FD7FC05C0C114D10439F4CA
:1015800004FF05C0D194C194D1088DE201C08BE263
:10159000B70190E00E94C90F80E36AE0C616D1044B
:1015A0002CF08F5FFAE0CF1AD108F7CFB70190E0A7
:1015B0000E94C90FB701C601C0960E94C90F41C160
:1015C000833631F0833779F0833509F058C021C074
:1015D000560172E0A70EB11CF6018081898301E0FB
:1015E00010E0640114C05601F2E0AF0EB11CF60128
:1015F000C080D18026FF03C0612F70E002C06FEF72
:101600007FEFC6012B8B0E94B60F8C012B892F77A1
:1016100015C05601F2E0AF0EB11CF601C080D180BA
:1016200026FF03C0612F70E002C06FEF7FEFC6019D
:101630002B8B0E94A00F8C012B892068722E23FD1A
:101640001AC0852D90E008171907A8F4B70180E2A9
:1016500090E00E94C90F5A94F4CFF60177FC85916F
:1016600077FE81916F01B70190E00E94C90F511080
:101670005A94015011090115110579F7E2C0843619
:1016800011F0893651F5560127FF09C0F4E0AF0E7D
:10169000B11CF60160817181828193810AC0F2E000
:1016A000AF0EB11CF60160817181882777FD8095AE
:1016B000982F022F0F7697FF08C090958095709510
:1016C00061957F4F8F4F9F4F00682AE030E0A40163
:1016D0000E94FB0FC82EC8183EC0022F853721F488
:1016E0000F7E2AE030E01DC0097F8F3691F018F49C
:1016F000883559F0B0C0803719F0883711F0ABC089
:10170000006104FF09C0046007C024FF08C0066030
:1017100006C028E030E005C020E130E002C020E152
:1017200032E0560107FF09C0F4E0AF0EB11CF6012C
:10173000608171818281938108C0F2E0AF0EB11C9B
:10174000F6016081718180E090E0A4010E94FB0FAE
:10175000C82EC8180F7706FF0BC0202F2E7FC1168A
:1017600050F404FF0AC002FD08C0202F2E7E05C0E1
:10177000DC2C202F03C0DC2C01C0D12E24FF0DC097
:10178000FE01EC0DF11D8081803311F4297E09C02A
:1017900022FF06C0D394D39404C0822F867809F028
:1017A000D39423FD13C020FF06C01C2DD51418F4BC
:1017B000150D1D19D52CD51468F4B70180E290E001
:1017C0002B8B0E94C90FD3942B89F5CFD51410F41D
:1017D0005D1801C0512C24FF12C0B70180E390E0D6
:1017E0002B8B0E94C90F2B8922FF17C021FF03C03A
:1017F00088E590E002C088E790E0B7010CC0822F36
:10180000867859F021FD02C080E201C08BE227FDFD
:101810008DE2B70190E00E94C90FC11638F4B701FC
:1018200080E390E00E94C90F1150F7CFCA94F401F1
:10183000EC0DF11D8081B70190E00E94C90FC1102D
:10184000F5CF552009F4C2CCB70180E290E00E94A8
:10185000C90F5A94F6CFF7018681978102C08FEFA6
:101860009FEF6396E2E10C9459125058BB27AA27C8
:101870000ED04DC13ED130F043D120F031F49F3F26
:1018800011F41EF433C10EF4E095E7FB29C1E92FF2
:101890004FD180F3BA17620773078407950718F0D2
:1018A00071F49EF567C10EF4E0950B2EBA2FA02DB2
:1018B0000B01B90190010C01CA01A0011124FF27FD
:1018C000591B99F0593F50F4503E68F11A16F040F8
:1018D000A22F232F342F4427585FF3CF46953795F7
:1018E0002795A795F0405395C9F77EF41F16BA0BBC
:1018F000620B730B840BBAF09150A1F0FF0FBB1F6A
:10190000661F771F881FC2F70EC0BA0F621F731FB2
:10191000841F48F4879577956795B795F7959E3F0F
:1019200008F0B3CF9395880F08F09927EE0F97959D
:10193000879508950CD0EBC0E3D040F0DAD030F0BA
:1019400021F45F3F19F0CCC0511115C1CFC0F0D0C8
:1019500098F39923C9F35523B1F3951B550BBB2776
:10196000AA2762177307840738F09F5F5F4F220F23
:10197000331F441FAA1FA9F333D00E2E3AF0E0E81C
:1019800030D091505040E695001CCAF729D0FE2F68
:1019900027D0660F771F881FBB1F261737074807FA
:1019A000AB07B0E809F0BB0B802DBF01FF279358B0
:1019B0005F4F2AF09E3F510568F092C0DCC05F3F48
:1019C000ECF3983EDCF3869577956795B795F79598
:1019D0009F5FC9F7880F911D9695879597F9089590
:1019E000E1E0660F771F881FBB1F6217730784072C
:1019F000BA0720F0621B730B840BBA0BEE1F88F73B
:101A0000E095089504D06894B111B5C0089598D0B8
:101A100088F09F5790F0B92F9927B751A0F0D1F0D7
:101A2000660F771F881F991F1AF0BA95C9F712C061
:101A3000B13081F09FD0B1E008959CC0672F782F1E
:101A40008827B85F39F0B93FCCF3869577956795CD
:101A5000B395D9F73EF490958095709561957F4F39
:101A60008F4F9F4F0895E89409C097FB3EF49095DF
:101A70008095709561957F4F8F4F9F4F9923A9F067
:101A8000F92F96E9BB279395F695879577956795F6
:101A9000B795F111F8CFFAF4BB0F11F460FF1BC03A
:101AA0006F5F7F4F8F4F9F4F16C0882311F096E9CD
:101AB00011C0772321F09EE8872F762F05C066237B
:101AC00071F096E8862F70E060E02AF09A95660F34
:101AD000771F881FDAF7880F9695879597F90895ED
:101AE00097F99F6780E870E060E008959FEF80ECD1
:101AF000089500240A941616170618060906089574
:101B000000240A9412161306140605060895092ED9
:101B10000394000C11F4882352F0BB0F40F4BF2B48
:101B200011F460FF04C06F5F7F4F8F4F9F4F089588
:101B300057FD9058440F551F59F05F3F71F047957E
:101B4000880F97FB991F61F09F3F79F08795089563
:101B5000121613061406551FF2CF4695F1DF08C082
:101B6000161617061806991FF1CF8695710561059F
:101B700008940895E894BB2766277727CB0197F947
:101B80000895A8D008F48FEF08950BD0C0CFB1DF2F
:101B900028F0B6DF18F0952309F0A2CFA7CF1124C3
:101BA000EACFC6DFA0F3959FD1F3950F50E0551F04
:101BB000629FF001729FBB27F00DB11D639FAA27A2
:101BC000F00DB11DAA1F649F6627B00DA11D661FF1
:101BD000829F2227B00DA11D621F739FB00DA11D12
:101BE000621F839FA00D611D221F749F3327A00DCC
:101BF000611D231F849F600D211D822F762F6A2F68
:101C000011249F5750408AF0E1F088234AF0EE0FEC
:101C1000FF1FBB1F661F771F881F91505040A9F7F9
:101C20009E3F510570F05CCFA6CF5F3FECF3983E2E
:101C3000DCF3869577956795B795F795E7959F5F60
:101C4000C1F7FE2B880F911D9695879597F90895FA
:101C500011F40EF44BCF62C073DFD0F39923D9F3A4
:101C6000CEF39F57550B87FF67D00024A0E640EACC
:101C7000900180585695979528F4805C660F771FE1
:101C8000881F20F026173707480730F4621B730BB4
:101C9000840B202931294A2BA695179407942025D7
:101CA00031254A2758F7660F771F881F20F026171F
:101CB0003707480730F4620B730B840B200D311D7E
:101CC000411DA09581F7B901842F9158880F9695F1
:101CD00087950895990F0008550FAA0BE0E8FEEFCD
:101CE00016161706E807F907C0F012161306E407E0
:101CF000F50798F0621B730B840B950B39F40A26D9
:101D000061F0232B242B252B21F408950A2609F4B6
:101D1000A140A6958FEF811D811D08959F3F31F051
:101D2000915020F4879577956795B795880F911D09
:101D30009695879597F9089591505040660F771FB3
:101D4000881FD2F70895662777270C945910FC0155
:101D500088279927E89421912032E9F3293010F05F
:101D60002E30C8F32B3241F02D3239F4689404C080
:101D70000E94C10F820F911D219120532A30C0F380
:101D80001EF4909581959F4F0895F8940C94BF127E
:101D9000283008F027E03327DA01990F311D87FD3D
:101DA000916000966105710539F432602E5F3D93B4
:101DB00030E32A95E1F708959F3F30F080387105B0
:101DC000610509F03C5F3C5F3D93913008F080680D
:101DD000911DDF93CF931F930F93FF92EF92192FD3
:101DE000987F9695E92F96959695E90FFF27E25BE8
:101DF000FE4F99273327EE24FF24A701E701059022
:101E00000894079428F4360FE71EF81E491F511D49
:101E1000660F771F881F991F0694A1F705900794F6
:101E200028F4E70EF81E491F561FC11D770F881FA3
:101E3000991F661F0694A1F70590079428F4F80EE1
:101E4000491F561FC71FD11D880F991F661F771F77
:101E50000694A1F70590079420F4490F561FC71F59
:101E6000D81F990F661F771F881F0694A9F78491C2
:101E70001095177041F0D695C79557954795F794EB
:101E8000E7941A95C1F7E4EFF0E068941590159186
:101E900035916591959105907FE27395E118F10A6E
:101EA000430B560BC90BD009C0F7E10CF11E431FC1
:101EB000561FC91FD01D7EF4703311F48A95E6CFEA
:101EC000E894015030F0080F0AF40027021708F4D4
:101ED000202F2395022F7A3328F079E37D932A95DA
:101EE000E9F710C07D932A9589F606949795679532
:101EF000379517951794E118F10A430B560BC90B48
:101F0000D00998F023957E9173957A3308F070E3A9
:101F10007C932013B8F77E9170617D9330F08395A8
:101F200071E37D9370E32A95E1F71124EF90FF9020
:101F30000F911F91CF91DF91992787FD909508957B
:101F4000FC010590615070400110D8F78095909584
:101F50008E0F9F1F0895FC018191861721F0882321
:101F6000D9F7992708953197CF010895FC01615061
:101F7000704001900110D8F7809590958E0F9F1FAB
:101F800008957AE0979F902D879F802D910D1124C1
:101F900008950F931F93CF93DF93182F092FEB0111
:101FA0008B8181FD03C08FEF9FEF20C082FF10C0A7
:101FB0004E815F812C813D81421753077CF4E8817B
:101FC000F9819F012F5F3F4F39832883108306C01B
:101FD000E885F985812F0995892B29F72E813F8185
:101FE0002F5F3F4F3F832E83812F902FDF91CF9123
:101FF0001F910F910895FA01AA27283051F120313D
:1020000081F1E8946F936E7F6E5F7F4F8F4F9F4F8C
:10201000AF4FB1E03ED0B4E03CD0670F781F891FCE
:102020009A1FA11D680F791F8A1F911DA11D6A0F9C
:10203000711D811D911DA11D20D009F468943F914F
:102040002AE0269F11243019305D3193DEF6CF014E
:102050000895462F4770405D4193B3E00FD0C9F714
:10206000F6CF462F4F70405D4A3318F0495D31FD81
:102070004052419302D0A9F7EACFB4E0A6959795D4
:10208000879577956795BA95C9F7009761057105AA
:1020900008959B01AC010A2E0694579547953795F4
:1020A0002795BA95C9F7620F731F841F951FA01D4E
:1020B0000895A0E0B0E0EFE5F0E10C943F128B0151
:1020C0006115710521F0DB018C9311969C93EC0155
:1020D0005E01BFEFAB1ABB0A7501C8808C2D90E082
:1020E0000E94C011892B11F0E501F2CFEDE2CE1272
:1020F00008C07E01F2E0EF0EF11CC980DD24D3940C
:1021000009C02BE2C21205C07E0142E0E40EF11CC0
:10211000C980D12CE701219743E050E066EF71E0E0
:10212000CE010E94C811892BD1F4E701229645E027
:1021300050E061EF71E0CE010E94C811892B11F4CB
:10214000E70127960115110519F0D801CD93DC930D
:10215000D11008C160E070E080E89FE70CC143E067
:1021600050E06EEE71E0CE010E94C811892B59F447
:102170000115110509F4FBC0B2E0EB0EF11CF801EA
:10218000F182E082F4C0F70160E070E0CB01C0E0D2
:10219000D0E07F01A0EDAA2EAC0C29E02A1530F189
:1021A0004D2D4260B42E2D2D2870D2FE04C0211179
:1021B00025C0219623C021112197A5E0B0E09B0105
:1021C000AC010E94E711660F771F881F991F6A0DE7
:1021D000711D811D911D6839A9E97A078A07A9E156
:1021E0009A0760F0BD2DB660BB2E08C02EEFA2127C
:1021F0000AC0D3FC50C04D2D4860B42E3196D70193
:10220000CC90DB2CC6CF2C2D2F7D253409F043C07C
:10221000A081AD3241F4BD2DB061DB2E7F0122E003
:10222000E20EF11C0CC07F01AB3231F04FEFE41A2B
:10223000F40A21E030E006C0A2E0EA0EF11CA18120
:1022400022E030E0A053AA3018F0E21AF30A23C0CB
:10225000F70120E030E02038BCE03B075CF4A90146
:10226000440F551F440F551F240F351F220F331FD6
:102270002A0F311DAF014F5F5F4F7A01A081A0533C
:10228000AA3010F4FA01E7CFD4FE03C031952195AE
:102290003109C20FD31FD1FE09C00115110531F05C
:1022A000E1E0EE1AF108D801ED92FC920E94330DA4
:1022B0002D2D2370233019F06B017C0106C06B01BA
:1022C0007C01F7FAF094F7F8F09420E030E0A901EF
:1022D000C701B6010E94E011882309F440C0D7FF6E
:1022E00006C0D195C195D1090DE012E002C005E20A
:1022F00012E04801B8E18B1A910890E2A92EB12CA6
:10230000F8014590559065907490CA15DB055CF016
:10231000A3019201C701B6010E94C50D6B017C01AA
:10232000CA19DB09F2CF04501109B594A794081516
:10233000190531F78E2D880F8F2D881F8F3F49F09B
:1023400020E030E0A901C701B6010E94E01181112F
:1023500006C082E290E090931A0180931901C701B0
:10236000B60109C060E070E080E89FEF04C060E063
:1023700070E080EC9FE7CDB7DEB7E0E10C945B1234
:10238000911122C0803219F089508550D0F70895FC
:10239000FB01DC014150504088F08D9181341CF0EC
:1023A0008B350CF4805E659161341CF06B350CF458
:1023B000605E861B611171F3990B0895881BFCCF39
:1023C00089DC08F481E008959927882708950E9400
:1023D0007A12A59F900DB49F900DA49F800D911D22
:1023E00011240895B7FF0C94E7110E94E711821B96
:1023F000930B0895DB018F939F930E94E711BF9188
:10240000AF91A29F800D911DA39F900DB29F900D43
:102410001124089597FB072E16F4009407D077FD3A
:1024200009D00E94891207FC05D03EF49095819551
:102430009F4F0895709561957F4F0895052E97FBE6
:102440001EF400940E94351257FD07D00E949D1281
:1024500007FC03D04EF40C943512509540953095FE
:1024600021953F4F4F4F5F4F089590958095709500
:1024700061957F4F8F4F9F4F08952F923F924F92BC
:102480005F926F927F928F929F92AF92BF92CF9204
:10249000DF92EF92FF920F931F93CF93DF93CDB70D
:1024A000DEB7CA1BDB0B0FB6F894DEBF0FBECDBF85
:1024B00009942A88398848885F846E847D848C8456
:1024C0009B84AA84B984C884DF80EE80FD800C815F
:1024D0001B81AA81B981CE0FD11D0FB6F894DEBF42
:1024E0000FBECDBFED010895EE0FFF1F0590F491D3
:1024F000E02D0994A29FB001B39FC001A39F700D6E
:10250000811D1124911DB29F700D811D1124911DFB
:102510000895AA1BBB1B51E107C0AA1FBB1FA6172A
:10252000B70710F0A61BB70B881F991F5A95A9F77C
:1025300080959095BC01CD010895A1E21A2EAA1BA9
:10254000BB1BFD010DC0AA1FBB1FEE1FFF1FA21763
:10255000B307E407F50720F0A21BB30BE40BF50B60
:10256000661F771F881F991F1A9469F760957095E9
:10257000809590959B01AC01BD01CF010895F89421
:02258000FFCF8B
:1025820001F00300080C04060203010980C0406048
:1025920020301090080C04060203010980C040603C
:0425A2002030109045
:00000001FF
