:100000000C9423010C9440010C9440010C94400189
:100010000C9440010C9440010C9440010C9440015C
:100020000C9423060C94EB020C9440010C94E2080F
:100030000C9440010C9440010C94ED020C9440018E
:100040000C9440010C9440010C9440010C94E90282
:100050000C944001180610060506FD052206FD0554
:100060000506100618065761726E696E673A206EB3
:100070006F7468696E6720746F20646F210A00577F
:1000800061726E696E673A20756E737570706F720B
:1000900074656420636F6D6D616E64210A00576141
:1000A000726E696E673A20756E737570706F7274D8
:1000B000656420636F6D6D616E64210A0057617223
:1000C0006E696E673A20756E737570706F727465C5
:1000D0006420636F6D6D616E64210A006F6B0A00AE
:1000E0006F6B0A006F6B0A004572726F723A207470
:1000F000686520636F6D6D616E74206275666665FC
:10010000722066756C6C210A006E616E00696E6605
:100110000000407A10F35A00A0724E18090010A592
:10012000D4E80000E87648170000E40B5402000011
:10013000CA9A3B000000E1F5050000809698000097
:100140000040420F000000A08601000000102700C0
:10015000000000E803000000006400000000000A46
:1001600000000000000100000000002C76D888DCB0
:10017000674F0823DFC1DFAE59E1B1B796E5E3E48D
:1001800053C63AE651997696E8E6C28426EB898C06
:100190009B62ED407C6FFCEFBC9C9F40F2BAA56F68
:1001A000A5F490055A2AF75C936B6CF9676DC11B37
:1001B000FCE0E40D47FEF520E6B500D0ED902E03FF
:1001C00000943577050080841E080000204E0A0048
:1001D0000000C80C333333330F986E12831141EF94
:1001E0008D2114893BE65516CFFEE6DB18D1844BF2
:1001F000381BF77C1D901DA4BBE424203284725E62
:10020000228100C9F124ECA1E53D274E414E494E23
:10021000495459494E46CDCCCC3D0AD7233C17B75B
:10022000D13877CC2B329595E6241FB14F0A0000C8
:1002300020410000C84200401C4620BCBE4CCA1BE6
:100240000E5AAEC59D7411241FBECFE5D4E0DEBFAB
:10025000CDBF10E0A0E6B0E0EEE2F7E202C005900C
:100260000D92A438B107D9F721E0A4E8B0E001C0AD
:100270001D92AB31B207E1F70E9467090C949D0F04
:100280000C9400002F923F924F925F926F927F9258
:100290008F929F92AF92BF92CF92DF92EF92FF9296
:1002A0000F931F93CF93DF9300D000D0CDB7DEB76D
:1002B0001C0167E470E00E948310009731F0019602
:1002C0000E947F0F082F10E802C010E000E06DE4EC
:1002D00070E0C1010E948310892B09F0106463E56E
:1002E00070E0C1010E948310892B09F0106268E55B
:1002F00070E0C1010E948310009749F001960E94AE
:100300007B0F69837A838B839C83106104C019827D
:100310001A821B821C8269E570E0C1010E94831071
:10032000009739F001960E947B0F2B013C01186069
:1003300003C0412C512C32016AE570E0C1010E94DA
:100340008310009739F001960E947B0F4B015C01EE
:10035000146003C0812C912C540165E470E0C1014C
:100360000E948310009739F001960E947B0F6B0169
:100370007C01126003C0C12CD12C760166E470E0D0
:10038000C1010E948310009769F001960E947B0FC3
:100390006093A4007093A5008093A6009093A7009B
:1003A000116003C0112309F4C9C017FFBFC0023098
:1003B00020F00C3509F489C0B6C014FF05C089814E
:1003C0009A81AB81BC8108C0809194009091950086
:1003D000A0919600B091970080938400909385003F
:1003E000A0938600B093870013FF09C04092880055
:1003F0005092890060928A0070928B0010C08091A8
:10040000980090919900A0919A00B0919B008093E0
:10041000880090938900A0938A00B0938B0012FF0C
:1004200009C080928C0090928D00A0928E00B092B4
:100430008F0010C080919C0090919D00A0919E0023
:10044000B0919F0080938C0090938D00A0938E00BC
:10045000B0938F0011FF09C0C0929000D09291001C
:10046000E0929200F092930010C08091A0009091D1
:10047000A100A091A200B091A3008093900090935E
:100480009100A0939200B09393006091A4007091AA
:10049000A5008091A6009091A7000F900F900F905B
:1004A0000F90DF91CF911F910F91FF90EF90DF9010
:1004B000CF90BF90AF909F908F907F906F905F9004
:1004C0004F903F902F900C94300310929400109214
:1004D000950010929600109297001092980010923A
:1004E000990010929A0010929B0010929C0010921A
:1004F0009D0010929E0010929F0011FF09C0C092B3
:10050000A000D092A100E092A200F092A30008C047
:100510001092A0001092A1001092A2001092A300CD
:100520008CED90E00DC08DEB90E00AC016FF03C08B
:100530008EE990E005C08FE790E002C086E690E08B
:100540000F900F900F900F90DF91CF911F910F910F
:10055000FF90EF90DF90CF90BF90AF909F908F90E3
:100560007F906F905F904F903F902F900C94D208A7
:100570008FEF84BB9EEF9ABB87BB80E881BB8DE485
:1005800083BF84E18CBF89B7836089BF83E08FBD5F
:1005900089E18EBD80E395E79BBD8ABD89B7846004
:1005A00089BF88E98AB986E880BD10BC83E389B930
:1005B00080E287B98FEC86B910BE089523E5829F4B
:1005C000C001112464E670E00E94CD128FE7860F0F
:1005D0000895DF981895DF9A18951F920F920FB61D
:1005E0000F9211242F933F934F935F936F937F93B9
:1005F0008F939F93AF93BF9385B1909161002091AA
:10060000600030E0290F311D43E5849FC0011124B3
:1006100064E670E00E94CD12615870E062177307C3
:1006200014F0979801C0979A85B123E5829FC00185
:10063000112464E670E00E94CD1261586093A80016
:10064000369ABF91AF919F918F917F916F915F91FA
:100650004F913F912F910F900FBE0F901F901895C3
:100660004F925F926F927F928F929F92AF92BF92C2
:10067000CF92DF92EF92FF92CF93DF93CDB7DEB7A9
:100680006C970FB6F894DEBF0FBECDBF6B017C0137
:1006900020919400309195004091960050919700E0
:1006A0006091840070918500809186009091870010
:1006B0000E94E70C2B013C01209198003091990099
:1006C00040919A0050919B00609188007091890040
:1006D00080918A0090918B000E94E70C6D837E834D
:1006E0008F83988720919C0030919D0040919E00BF
:1006F00050919F0060918C0070918D0080918E00D0
:1007000090918F000E94E70C69877A878B879C877E
:100710002091A0003091A1004091A2005091A3002F
:10072000609190007091910080919200909193005F
:100730000E94E70C6D877E878F87988B20E030E0E2
:1007400040EA50E4C301B2010E948F0E0E94C60D20
:1007500069837A838B839C836093C6007093C70000
:100760008093C8009093C90020E030E040EA50E454
:100770006D817E818F8198850E948F0E0E94C60DAB
:10078000698B7A8B8B8B9C8B6093CA007093CB00A8
:100790008093CC009093CD0020E030E040EA50E41C
:1007A00069857A858B859C850E948F0E0E94C60D77
:1007B0006D8B7E8B8F8B988F6093CE007093CF0064
:1007C0008093D0009093D10020E030E040EA50E4E4
:1007D0006D857E858F8598890E948F0E0E94C60D3B
:1007E000698F7A8F8B8F9C8F6093D2007093D30028
:1007F0008093D4009093D500A3019201C301B2016C
:100800000E948F0E4B015C012D813E814F815885E6
:10081000CA01B9010E948F0E9B01AC01C501B40150
:100820000E94E80C4B015C0129853A854B855C856B
:10083000CA01B9010E948F0E9B01AC01C501B40130
:100840000E94E80C4B015C012D853E854F8558893F
:10085000CA01B9010E948F0E9B01AC01C501B40110
:100860000E94E80C0E94020F4B015C0129813A8131
:100870004B815C81CA01B9010E94BD1269837A83F0
:100880008B839C8329893A894B895C89CA01B90188
:100890000E94BD1229813A814B815C81260F371F4E
:1008A000481F591F29833A834B835C832D893E89D6
:1008B0004F89588DCA01B9010E94BD1229813A8120
:1008C0004B815C81260F371F481F591F29833A83AC
:1008D0004B835C83298D3A8D4B8D5C8DCA01B901A8
:1008E0000E94BD1229813A814B815C81620F731F86
:1008F000841F951F0E94FE0D0E94020F0E94C60DCC
:100900006093C2007093C3008093C4009093C500AD
:1009100020E030E84BEB55E4C701B6010E948A0E97
:10092000181654F020E030E0A901C701B6010E947A
:100930008A0E181644F0F9C0C12C80E8D82E8BEB33
:10094000E82E85E4F82E20E030E0A901C501B401CD
:100950000E948A0E18160CF0E8C0C301B2010E9472
:10096000C60D9B0177FF04C022273327261B370BB8
:10097000B901330F880B990B0E94FE0D2B013C012E
:100980009B01AC01C701B6010E948F0EA501940125
:100990000E94540D20E030E44CE955E40E948A0E98
:1009A000181674F420E030E44CE955E4C501B401B4
:1009B0000E948F0EA30192010E94540D6B017C01D5
:1009C0006D817E818F8198850E94C60D9B0177FF86
:1009D00004C022273327261B370BB901330F880B9E
:1009E000990B0E94FE0D2B013C019B01AC01C7013C
:1009F000B6010E948F0EA50194010E94540D20E0C3
:100A000030E44CE955E40E948A0E181674F420E094
:100A100030E44CE955E4C501B4010E948F0EA301F6
:100A200092010E94540D6B017C0169857A858B854A
:100A30009C850E94C60D9B0177FF04C022273327A7
:100A4000261B370BB901330F880B990B0E94FE0D43
:100A50002B013C019B01AC01C701B6010E948F0E26
:100A6000A50194010E94540D20E030E04AE754E4CF
:100A70000E948A0E181674F420E030E04AE754E42D
:100A8000C501B4010E948F0EA30192010E94540D72
:100A90006B017C016D857E858F8598890E94C60DCE
:100AA0009B0177FF04C022273327261B370BB90190
:100AB000330F880B990B0E94FE0D2B013C019B010B
:100AC000AC01C701B6010E948F0EA50194010E94DE
:100AD000540D20E030E04AE754E40E948A0E1816D4
:100AE00074F420E030E04AE754E4C501B4010E9408
:100AF0008F0EA30192010E94540D6B017C01C7016E
:100B0000B6010E94C60D9B01AC01A5E0B0E00E94B9
:100B100006139B01AC0160E07CE380E090E00E9462
:100B2000E11230936300209362001092B2001092A1
:100B3000B3001092B4001092B5001092B60010925B
:100B4000B7001092B8001092B9001092BA0010923B
:100B5000BB001092BC001092BD001092BE0010921B
:100B6000BF001092C0001092C10080E88093B100D5
:100B70006C960FB6F894DEBF0FBECDBFDF91CF915C
:100B8000FF90EF90DF90CF90BF90AF909F908F90AD
:100B90007F906F905F904F900895A82F082E000CC3
:100BA000BB0B18166CF4A855BF4F2C9130E02730C2
:100BB000310519F02F5F3F4F11C020E030E00EC02B
:100BC000A095B095A755BF4F2C9130E02115310568
:100BD00019F02150310902C027E030E02C93082E93
:100BE000000C990BAA0BBB0BFC013496E930F10504
:100BF00048F5E65DFF4F0C94001385B38F7085BBFD
:100C000095B3F901E458FF4F07C085B3807F85BBDA
:100C100095B3F901EC58FF4F8081892B85BB08956E
:100C200088B38F7088BB98B3F901E459FF4F07C0B0
:100C300088B3807F88BB98B3F901EC59FF4F80815E
:100C4000892B88BB08951F920F920FB60F92112423
:100C50008F929F92AF92BF92CF92DF92EF92FF92CC
:100C60002F933F934F935F936F937F938F939F93B4
:100C7000AF93BF93EF93FF938091B100803809F059
:100C800074C2C090C200D090C300E090C400F09045
:100C9000C500C114D104E104F10409F456C28091E5
:100CA000AF009091B00020916200309163008217F4
:100CB000930744F401969093B0008093AF0015BA67
:100CC00018BA53C21092B0001092AF002091C60023
:100CD0003091C7004091C8005091C900A091AD006B
:100CE000B091AE001216130614061506CCF58090CE
:100CF000B2009090B300A090B400B090B5000E94F4
:100D00001113A70196010E94E11282169306A40610
:100D1000B5060CF063C08FEF881A980AA80AB80AC3
:100D20008092B2009092B300A092B400B092B5004D
:100D30002DEC3CEC4CE45EE36091940070919500E6
:100D400080919600909197000E94E80C6093940027
:100D500070939500809396009093970081E03CC03B
:100D60002115310541055105C9F18090B2009090DF
:100D7000B300A090B400B090B5000E941113A70179
:100D800096010E94E112281539054A055B0534F5E4
:100D900081E0881A9108A108B1088092B20090926F
:100DA000B300A092B400B092B5002DEC3CEC4CE442
:100DB0005EE360919400709195008091960090910F
:100DC00097000E94E70C60939400709395008093C5
:100DD0009600909397008FEF0E94CD052091CA0056
:100DE0003091CB004091CC005091CD00A091AD004E
:100DF000B091AE001216130614061506CCF58090BD
:100E0000B6009090B700A090B800B090B9000E94D2
:100E10001113A70196010E94E11282169306A406FF
:100E2000B5060CF063C08FEF881A980AA80AB80AB2
:100E30008092B6009092B700A092B800B092B9002C
:100E40002DEC3CEC4CE45EE36091980070919900CD
:100E500080919A0090919B000E94E80C609398000A
:100E60007093990080939A0090939B0082E03CC01D
:100E70002115310541055105C9F18090B6009090CA
:100E8000B700A090B800B090B9000E941113A7015C
:100E900096010E94E112281539054A055B0534F5D3
:100EA00081E0881A9108A108B1088092B60090925A
:100EB000B700A092B800B092B9002DEC3CEC4CE425
:100EC0005EE3609198007091990080919A009091F2
:100ED0009B000E94E70C60939800709399008093A8
:100EE0009A0090939B008EEF0E94CD052091CE003A
:100EF0003091CF004091D0005091D100A091AD0031
:100F0000B091AE001216130614061506CCF58090AB
:100F1000BA009090BB00A090BC00B090BD000E94B1
:100F20001113A70196010E94E11282169306A406EE
:100F3000B5060CF063C08FEF881A980AA80AB80AA1
:100F40008092BA009092BB00A092BC00B092BD000B
:100F50002DEC3CEC4CE45EE360919C0070919D00B4
:100F600080919E0090919F000E94E80C60939C00ED
:100F700070939D0080939E0090939F0083E03CC0FF
:100F80002115310541055105C9F18090BA009090B5
:100F9000BB00A090BC00B090BD000E941113A7013F
:100FA00096010E94E112281539054A055B0534F5C2
:100FB00081E0881A9108A108B1088092BA00909245
:100FC000BB00A092BC00B092BD002DEC3CEC4CE408
:100FD0005EE360919C0070919D0080919E009091D5
:100FE0009F000E94E70C60939C0070939D0080938B
:100FF0009E0090939F008DEF0E94CD052091D2001E
:101000003091D3004091D4005091D500A091AD0013
:10101000B091AE001216130614061506CCF580909A
:10102000BE009090BF00A090C000B090C1000E9490
:101030001113A70196010E94E11282169306A406DD
:10104000B5060CF063C08FEF881A980AA80AB80A90
:101050008092BE009092BF00A092C000B092C100EA
:101060002DEC3CEC4CE45EE36091A0007091A1009B
:101070008091A2009091A3000E94E80C6093A000D0
:101080007093A1008093A2009093A30084E03CC0E1
:101090002115310541055105C9F18090BE009090A0
:1010A000BF00A090C000B090C1000E941113A70122
:1010B00096010E94E112281539054A055B0534F5B1
:1010C00081E0881A9108A108B1088092BE00909230
:1010D000BF00A092C000B092C1002DEC3CEC4CE4EB
:1010E0005EE36091A0007091A1008091A2009091B8
:1010F000A3000E94E70C6093A0007093A10080936E
:10110000A2009093A3008CEF0E94CD058091AD00CA
:101110009091AE00AC01092E000C660B770B4C15BC
:101120005D056E057F0534F401969093AE008093C3
:10113000AD001BC01092B1001092AE001092AD0035
:1011400015BA18BA84EE90E00EC01092B100109259
:10115000AE001092AD001092B0001092AF0015BA20
:1011600018BA80EE90E00E94D208FF91EF91BF91F3
:10117000AF919F918F917F916F915F914F913F912F
:101180002F91FF90EF90DF90CF90BF90AF909F9006
:101190008F900F900FBE0F901F9018955D9BFECF04
:1011A0008CB90895CF93DF93EC01FE0184918823DD
:1011B00031F0FE0184910E94CE082196F6CFDF9196
:1011C000CF9108951F920F920FB60F9211242F9373
:1011D0003F934F935F936F937F938F939F93AF93BF
:1011E000BF93EF93FF93CF93DF93CDB7DEB7C05498
:1011F000D109DEBFCDBF2CB12A30A9F12D3099F134
:101200002B3319F481E0809318018091160190919D
:1012100017018034910574F43091180131113DC0EB
:10122000FC01EA52FF4F20830196909317018093AF
:10123000160133C08FE390E0FC01EA52FF4FA1E0BA
:10124000B0E0AC0FBD1FA80FB91F20812C931082F6
:10125000019790F7109217011092160188EE90E016
:101260000E94D2081AC0109218018FE390E0FC018E
:10127000EA52FF4FA1E0B0E0AC0FBD1FA80FB91FAD
:1012800020812C931082019790F7109217011092F1
:101290001601CE0101960E944201C05CDF4F0FB6DD
:1012A000F894DEBF0FBECDBFDF91CF91FF91EF91DC
:1012B000BF91AF919F918F917F916F915F914F916E
:1012C0003F912F910F900FBE0F901F9018950E9485
:1012D000B8027894FFCFA3E1B0E0E1E7F9E00C9425
:1012E00019136C014B012A01FC01178216828381BC
:1012F00081FF43C3AE014F5F5F4F3A01F601938117
:10130000F40193FD859193FF81914F01882309F4A6
:1013100030C3853239F493FD859193FF81914F015C
:10132000853239F4B60190E00E94A11052012501E6
:10133000E5CF10E0F12C20E02032A0F48B3269F0F0
:1013400030F4803259F0833269F420612CC08D3240
:1013500039F0803339F4216026C02260246023C034
:10136000286021C027FD27C030ED380F3A3078F4CF
:1013700026FF06C0FAE01F9F300D1124132F13C063
:101380004AE0F49E300D1124F32E20620CC08E3200
:1013900021F426FDEEC2206406C08C3611F42068CC
:1013A00002C0883641F4F40193FD859193FF819149
:1013B0004F018111C1CF9BEB980F933018F420613E
:1013C000805E06C09BE9980F933008F071C12F7EB4
:1013D00026FF16E02F73322E853619F42064322E44
:1013E00008C0863621F4F22FF0683F2E02C011119A
:1013F000115037FE07C01C3350F4EE24E394E10E85
:1014000027E00BC0183038F027E017E005C027E0D0
:101410004CE3E42E02C0212FE12C520144E0A40E43
:10142000B11CF20160817181828193810E2DA30133
:101430000E94A00F2C01098100FF02C003FF07C01A
:1014400031FC08C032FE09C030E2232E07C02DE275
:10145000222E04C09BE2292E01C0212C802F8C70EB
:1014600019F0211068C2A8C237FE0FC0E40C04FFB7
:1014700004C08A81813309F4EA941E1474F5F8E0FB
:10148000FE1578F588E0E82E2CC036FC2AC0812FA6
:1014900090E0841595059CF02CEF42162FEF520634
:1014A00074F0432D4068342E0AC0E2E0F0E0EC0F07
:1014B000FD1FE10FF11D8081803319F411501111CE
:1014C000F4CF37FE0EC0EE24E394E10E812F90E0BE
:1014D000481659062CF4141904C0EE24E39401C0F4
:1014E00010E037FE06C01414150434F4C20101964E
:1014F00005C085E090E002C081E090E021100196F7
:10150000112331F0212F30E02F5F3F4F820F931FC7
:101510002F2D30E08217930714F4F81A01C0F12C34
:10152000832D897049F4FF2039F0B60180E290E004
:101530000E94A110FA94F7CF222029F0B601822D43
:1015400090E00E94A11033FC09C0FF2039F0B601E1
:1015500080E390E00E94A110FA94F7CF37FE5AC0C2
:10156000942D852D57FE02C090E080E0292E382E64
:1015700020E030E0A2014E1951095D874C87A2019D
:10158000421953095F874E87612F70E04427552722
:10159000461B570B598B488B5FEF2516350649F4D0
:1015A000B6018EE290E02A8B3B8B0E94A1103B8912
:1015B0002A89421453046CF04C855D85421553050D
:1015C00044F4EE85FF85E20FF31FE60DF71D8181E0
:1015D00001C080E351E0251A31082F5F3F4F488951
:1015E0005989241635064CF0B60190E02A8B3B8BC6
:1015F0000E94A1102A893B89CFCF2414350439F4E5
:101600009A81963318F4953311F404FF81E3B601FF
:1016100090E04BC08A81813309F00F7EB60190E0E3
:101620000E94A110111105C034FC18C085E690E09D
:1016300017C0B6018EE290E00E94A11082E0EE2475
:10164000E394E80EF301E80FF11D8081B60190E00C
:101650000E94A11011508E2D91F7E6CF85E490E005
:10166000B6010E94A11057FC05C04114510439F481
:1016700004FF05C05194419451088DE201C08BE2F2
:10168000B60190E00E94A11080E39AE0491651044F
:101690002CF08F5F5AE0451A5108F7CFB60190E061
:1016A0000E94A110B601C201C0960E94A11057C1AC
:1016B000833631F0833779F0833509F058C021C083
:1016C0005201E2E0AE0EB11CF2018081898301E09B
:1016D00010E0230114C05201F2E0AF0EB11CF20180
:1016E0004080518026FF03C0612F70E002C06FEF81
:1016F0007FEFC2012A8B0E948E108C012A892F77DE
:1017000015C05201F2E0AF0EB11CF20140805180D1
:1017100026FF03C0612F70E002C06FEF7FEFC201B0
:101720002A8B0E9478108C012A892068322E23FD92
:101730001AC08F2D90E008171907A8F4B60180E2AF
:1017400090E00E94A110FA94F4CFF20137FC859149
:1017500037FE81912F01B60190E00E94A110F11097
:10176000FA94015011090115110579F7F8C0843672
:1017700011F0893659F5520127FF09C0F4E0AF0E88
:10178000B11CF20160817181828193810AC0F2E013
:10179000AF0EB11CF20160817181072E000C880B25
:1017A000990B2F76322E97FF09C0909580957095F2
:1017B00061957F4F8F4F9F4F2068322E2AE030E097
:1017C000A3010E94D910E82EE6183FC0022F8537EA
:1017D00021F40F7E2AE030E01DC0097F8F3691F0A2
:1017E00018F4883559F0C5C0803719F0883711F0E2
:1017F000C0C0006104FF09C0046007C024FF08C026
:10180000066006C028E030E005C020E130E002C0FC
:1018100020E132E0520107FF09C0F4E0AF0EB11C35
:10182000F201608171818281938108C0F2E0AF0E84
:10183000B11CF2016081718180E090E0A3010E94FF
:10184000D910E82EE6180F77302E36FE0BC0332D58
:101850003E7FE11650F434FE0AC032FC08C0332D3E
:101860003E7E05C00E2D332D03C00E2D01C0012F6D
:1018700034FF0CC0FE01EE0DF11D8081803311F4A8
:10188000397E08C032FF05C00E5F04C0832F867802
:1018900009F00F5F33FD13C030FF06C01E2D0F157A
:1018A00018F41F0D101B0F2D0F1568F4B60180E200
:1018B00090E03B8B0E94A1100F5F3B89F5CF0F1585
:1018C00010F4F01A01C0F12C34FF12C0B60180E30D
:1018D00090E03B8B0E94A1103B8932FF17C031FD85
:1018E00003C088E790E002C088E590E0B6010CC034
:1018F000832F867859F031FF02C08BE201C080E26D
:1019000037FD8DE2B60190E00E94A110E11638F497
:10191000B60180E390E00E94A1101150F7CFEA9445
:10192000F301EE0DF11D8081B60190E00E94A1103F
:10193000E110F5CF14C0F4E0FF1558F584E0F81A73
:1019400033FE1EC0211026C003FF2AC009E011E0AB
:10195000F32DF0713F2EF8018491811124C0FF20F6
:1019600009F4E5CCB60180E290E00E94A110FA945F
:10197000F6CFF6018681978126C08FEF9FEF23C0B7
:10198000B60180E290E00E94A110FA94F110F8CF25
:10199000D9CFF12CB601822D90E00E94A110D4CFB6
:1019A0000DE011E0D5CF31108052B60190E00E94D9
:1019B000A1100F5F1F4FCFCF23E02F1510F483E04E
:1019C000BECFF12CC1CF6396E2E10C943513505891
:1019D000BB27AA270E94FF0C0C94500E0E94420EB7
:1019E00038F00E94490E20F039F49F3F19F426F494
:1019F0000C943F0E0EF4E095E7FB0C94390EE92FA2
:101A00000E94610E58F3BA1762077307840795079F
:101A100020F079F4A6F50C94830E0EF4E0950B2ECD
:101A2000BA2FA02D0B01B90190010C01CA01A00130
:101A30001124FF27591B99F0593F50F4503E68F18B
:101A40001A16F040A22F232F342F4427585FF3CFCC
:101A5000469537952795A795F0405395C9F77EF49D
:101A60001F16BA0B620B730B840BBAF09150A1F0E6
:101A7000FF0FBB1F661F771F881FC2F70EC0BA0F6C
:101A8000621F731F841F48F4879577956795B795F4
:101A9000F7959E3F08F0B0CF9395880F08F09927EF
:101AA000EE0F9795879508950E94680D0C94500E3F
:101AB0000E94490E58F00E94420E40F029F45F3F08
:101AC00029F00C94390E51110C94840E0C943F0E95
:101AD0000E94610E68F39923B1F3552391F3951B8E
:101AE000550BBB27AA2762177307840738F09F5F3F
:101AF0005F4F220F331F441FAA1FA9F335D00E2EAC
:101B00003AF0E0E832D091505040E695001CCAF718
:101B10002BD0FE2F29D0660F771F881FBB1F2617DB
:101B200037074807AB07B0E809F0BB0B802DBF01B2
:101B3000FF2793585F4F3AF09E3F510578F00C9481
:101B4000390E0C94840E5F3FE4F3983ED4F38695EF
:101B500077956795B795F7959F5FC9F7880F911DA2
:101B60009695879597F90895E1E0660F771F881F8E
:101B7000BB1F621773078407BA0720F0621B730B41
:101B8000840BBA0BEE1F88F7E09508950E94CD0DE7
:101B90006894B1110C94840E08950E94690E88F027
:101BA0009F5798F0B92F9927B751B0F0E1F0660F21
:101BB000771F881F991F1AF0BA95C9F714C0B13062
:101BC00091F00E94830EB1E008950C94830E672F6C
:101BD000782F8827B85F39F0B93FCCF38695779591
:101BE0006795B395D9F73EF490958095709561957A
:101BF0007F4F8F4F9F4F0895E89409C097FB3EF4A5
:101C000090958095709561957F4F8F4F9F4F992349
:101C1000A9F0F92F96E9BB279395F69587957795C7
:101C20006795B795F111F8CFFAF4BB0F11F460FF87
:101C30001BC06F5F7F4F8F4F9F4F16C0882311F0DF
:101C400096E911C0772321F09EE8872F762F05C0F3
:101C5000662371F096E8862F70E060E02AF09A958E
:101C6000660F771F881FDAF7880F9695879597F983
:101C7000089597F99F6780E870E060E008959FEF0E
:101C800080EC089500240A94161617061806090613
:101C9000089500240A9412161306140605060895E2
:101CA000092E0394000C11F4882352F0BB0F40F46A
:101CB000BF2B11F460FF04C06F5F7F4F8F4F9F4FAA
:101CC000089557FD9058440F551F59F05F3F71F02C
:101CD0004795880F97FB991F61F09F3F79F0879593
:101CE0000895121613061406551FF2CF4695F1DF1C
:101CF00008C0161617061806991FF1CF86957105AC
:101D0000610508940895E894BB2766277727CB01DF
:101D100097F908950E94420F08F48FEF08950E94EA
:101D2000A20E0C94500E0E94420E38F00E94490EF2
:101D300020F0952311F00C94390E0C943F0E1124D1
:101D40000C94840E0E94610E70F3959FC1F3950F61
:101D500050E0551F629FF001729FBB27F00DB11D2F
:101D6000639FAA27F00DB11DAA1F649F6627B00DBF
:101D7000A11D661F829F2227B00DA11D621F739FA8
:101D8000B00DA11D621F839FA00D611D221F749FB6
:101D90003327A00D611D231F849F600D211D822FFD
:101DA000762F6A2F11249F5750409AF0F1F0882324
:101DB0004AF0EE0FFF1FBB1F661F771F881F915051
:101DC0005040A9F79E3F510580F00C94390E0C94B9
:101DD000840E5F3FE4F3983ED4F38695779567953C
:101DE000B795F795E7959F5FC1F7FE2B880F911D7B
:101DF0009695879597F9089519F416F40C943F0E6B
:101E00000C94660F0E94690EB8F39923C9F3B6F3D8
:101E10009F57550B87FF0E94740F0024A0E640EAED
:101E2000900180585695979528F4805C660F771F2F
:101E3000881F20F026173707480730F4621B730B02
:101E4000840B202931294A2BA69517940794202525
:101E500031254A2758F7660F771F881F20F026176D
:101E60003707480730F4620B730B840B200D311DCC
:101E7000411DA09581F7B901842F9158880F96953F
:101E800087950895990F0008550FAA0BE0E8FEEF1B
:101E900016161706E807F907C0F012161306E4072E
:101EA000F50798F0621B730B840B950B39F40A2627
:101EB00061F0232B242B252B21F408950A2609F405
:101EC000A140A6958FEF811D811D08959F3F31F0A0
:101ED000915020F4879577956795B795880F911D58
:101EE0009695879597F9089591505040660F771F02
:101EF000881FD2F70895662777270C943711FC01C5
:101F000088279927E89421912032E9F3293010F0AD
:101F10002E30C8F32B3241F02D3239F4689404C0CE
:101F20000E949910820F911D219120532A30C0F3F5
:101F30001EF4909581959F4F0895F8940C949513F5
:101F4000283008F027E03327DA01990F311D87FD8B
:101F5000916000966105710539F432602E5F3D9302
:101F600030E32A95E1F708959F3F30F080387105FE
:101F7000610509F03C5F3C5F3D93913008F080685B
:101F8000911DDF93CF931F930F93FF92EF92192F21
:101F9000987F9695E92F96959695E90FFF27E55935
:101FA000FE4F99273327EE24FF24A701E701059070
:101FB0000894079428F4360FE71EF81E491F511D98
:101FC000660F771F881F991F0694A1F70590079445
:101FD00028F4E70EF81E491F561FC11D770F881FF2
:101FE000991F661F0694A1F70590079428F4F80E30
:101FF000491F561FC71FD11D880F991F661F771FC6
:102000000694A1F70590079420F4490F561FC71FA7
:10201000D81F990F661F771F881F0694A9F7849110
:102020001095177041F0D695C79557954795F79439
:10203000E7941A95C1F7E1E1F1E0689415901591E4
:1020400035916591959105907FE27395E118F10ABC
:10205000430B560BC90BD009C0F7E10CF11E431F0F
:10206000561FC91FD01D7EF4703311F48A95E6CF38
:10207000E894015030F0080F0AF40027021708F422
:10208000202F2395022F7A3328F079E37D932A9528
:10209000E9F710C07D932A9589F606949795679580
:1020A000379517951794E118F10A430B560BC90B96
:1020B000D00998F023957E9173957A3308F070E3F8
:1020C0007C932013B8F77E9170617D9330F08395F7
:1020D00071E37D9370E32A95E1F71124EF90FF906F
:1020E0000F911F91CF91DF91992787FD90950895CA
:1020F000FC010590615070400110D8F780959095D3
:102100008E0F9F1F0895FC018191861721F088236F
:10211000D9F7992708953197CF010895FC016150AF
:10212000704001900110D8F7809590958E0F9F1FF9
:1021300008957AE0979F902D879F802D910D11240F
:1021400008950F931F93CF93DF93FB01238121FD0C
:1021500003C08FEF9FEF28C022FF16C04681578132
:10216000248135814217530744F4A081B1819D0138
:102170002F5F3F4F318320838C93268137812F5FE0
:102180003F4F3783268310C0EB01092F182F00849F
:10219000F185E02D0995892BE1F68E819F810196CD
:1021A0009F838E83812F902FDF91CF911F910F916D
:1021B0000895FA01AA27283051F1203181F1E894DD
:1021C0006F936E7F6E5F7F4F8F4F9F4FAF4FB1E02A
:1021D0003ED0B4E03CD0670F781F891F9A1FA11D25
:1021E000680F791F8A1F911DA11D6A0F711D811D26
:1021F000911DA11D20D009F468943F912AE0269FEB
:1022000011243019305D3193DEF6CF010895462F49
:102210004770405D4193B3E00FD0C9F7F6CF462F2A
:102220004F70405D4A3318F0495D31FD4052419393
:1022300002D0A9F7EACFB4E0A69597958795779550
:102240006795BA95C9F700976105710508959B01D7
:10225000AC010A2E06945795479537952795BA9560
:10226000C9F7620F731F841F951FA01D0895A0E07A
:10227000B0E0EDE3F1E10C941D13EC017B0161157D
:10228000710519F0DB018D939C938E010F5F1F4F39
:102290007880872D90E00E949412892B11F0E8013C
:1022A000F4CFBDE27B1205C00F5F1F4F7980C1E004
:1022B00008C0EBE27E1204C08E010E5F1F4F7980D2
:1022C000C0E06801F1E0CF1AD10843E050E063E1DB
:1022D00072E0C6010E949D12892BF1F4680122E090
:1022E000C20ED11C45E050E06EE072E0C6010E94D3
:1022F0009D12892B21F4680187E0C80ED11CE114DE
:10230000F10419F0D701CD92DC92C111FFC060E059
:1023100070E080E89FE703C143E050E06BE072E0CB
:10232000C6010E949D12892B51F4E114F10409F4B5
:10233000F2C00E5F1F4FF70111830083ECC06801EC
:1023400060E070E0CB0100E010E0F601D0EDD70DC9
:10235000DA3058F52C2F2260622E2C2F2870C2FF05
:1023600005C0211128C00F5F1F4F25C0222311F087
:1023700001501109A5E0B0E09B01AC010E940613D9
:102380004B015C01880C991CAA1CBB1CC501B40143
:102390006D0F711D811D911D6839A9E97A078A07A2
:1023A000A9E19A0740F0C66005C0DE3F51F4C3FDC5
:1023B00044C0C8606C2EBFEFCB1ADB0A7080C62DFC
:1023C000C4CF2D2F2F7D2531C1F540814D3211F421
:1023D000C06106C04B3221F0319621E030E006C0EA
:1023E0003296D60111964C9122E030E0A0EDA40F78
:1023F000AA3018F0E21BF30B20C040E050E0403858
:10240000BCE05B075CF49A01220F331F220F331FDD
:10241000420F531F440F551F4A0F511D3196DF01C4
:1024200011972C91A0EDA20FAA3048F3C4FF03C06E
:10243000519541955109040F151FC1FF07C0E114C3
:10244000F10421F03197D701ED93FC930E94FC0D2C
:10245000C370C33019F06B017C0106C06B017C01B5
:10246000F7FAF094F7F8F09420E030E0A901C70102
:10247000B6010E94B512882309F445C017FF06C0B3
:10248000119501951109CAE2D2E002C0C2E4D2E07E
:102490005E01B8E1AB1AB1084601BE2DAF2D90E246
:1024A000E92EF12C0E151F0584F0FE0125913591C2
:1024B00045915491B4018B2F9A2F0E948F0E4B019E
:1024C000B82FA92F0E191F09EDCF2497F594E79483
:1024D000CA15DB0539F76401EB2EFA2E8E2D880F15
:1024E0008F2D881F8F3F49F020E030E0A901C70100
:1024F000B6010E94B512811106C082E290E090936D
:102500001A0180931901C701B60109C060E070E0AB
:1025100080E89FEF04C060E070E080EC9FE7CDB7FB
:10252000DEB7EEE00C94391391110C94BA1280329C
:1025300019F089508550C8F70895FB01DC0141501E
:10254000504088F08D9181341CF08B350CF4805E06
:10255000659161341CF06B350CF4605E861B611173
:1025600071F3990B0895881BFCCF0E94420F08F469
:1025700081E00895992788270895DB018F939F9321
:102580000E940613BF91AF91A29F800D911DA39F42
:10259000900DB29F900D1124089597FB072E16F40D
:1025A000009407D077FD09D00E94501307FC05D096
:1025B0003EF4909581959F4F0895709561957F4F5A
:1025C0000895052E97FB1EF400940E94F81257FD03
:1025D00007D00E94641307FC03D04EF40C94F81249
:1025E00050954095309521953F4F4F4F5F4F08953F
:1025F00090958095709561957F4F8F4F9F4F08956F
:10260000EE0FFF1F0590F491E02D09940E948613B0
:10261000A59F900DB49F900DA49F800D911D112436
:102620000895B7FF0C9406130E940613821B930BA8
:1026300008952F923F924F925F926F927F928F9266
:102640009F92AF92BF92CF92DF92EF92FF920F9341
:102650001F93CF93DF93CDB7DEB7CA1BDB0B0FB64B
:10266000F894DEBF0FBECDBF09942A883988488808
:102670005F846E847D848C849B84AA84B984C8849E
:10268000DF80EE80FD800C811B81AA81B981CE0F95
:10269000D11D0FB6F894DEBF0FBECDBFED0108957A
:1026A000AA1BBB1B51E107C0AA1FBB1FA617B70778
:1026B00010F0A61BB70B881F991F5A95A9F7809594
:1026C0009095BC01CD010895A1E21A2EAA1BBB1B57
:1026D000FD010DC0AA1FBB1FEE1FFF1FA217B307EE
:1026E000E407F50720F0A21BB30BE40BF50B661F04
:1026F000771F881F991F1A9469F7609570958095C8
:1027000090959B01AC01BD01CF010895A29FB0013E
:10271000B39FC001A39F700D811D1124911DB29F15
:0E272000700D811D1124911D0895F894FFCFB6
:10272E0001F00300080C04060203010980C040609A
:10273E0020301090080C04060203010980C040608E
:04274E002030109097
:00000001FF
